{
  "_format": "hh-sol-artifact-1",
  "contractName": "TokenBank",
  "sourceName": "contracts/TokenBank.sol",
  "abi": [
    {
      "inputs": [
        {
          "internalType": "string",
          "name": "name_",
          "type": "string"
        },
        {
          "internalType": "string",
          "name": "symbol_",
          "type": "string"
        },
        {
          "internalType": "address",
          "name": "nftContract_",
          "type": "address"
        }
      ],
      "stateMutability": "nonpayable",
      "type": "constructor"
    },
    {
      "anonymous": false,
      "inputs": [
        {
          "indexed": true,
          "internalType": "address",
          "name": "from",
          "type": "address"
        },
        {
          "indexed": false,
          "internalType": "uint256",
          "name": "amount",
          "type": "uint256"
        }
      ],
      "name": "TokenDeposit",
      "type": "event"
    },
    {
      "anonymous": false,
      "inputs": [
        {
          "indexed": true,
          "internalType": "address",
          "name": "from",
          "type": "address"
        },
        {
          "indexed": true,
          "internalType": "address",
          "name": "to",
          "type": "address"
        },
        {
          "indexed": false,
          "internalType": "uint256",
          "name": "amount",
          "type": "uint256"
        }
      ],
      "name": "TokenTransfer",
      "type": "event"
    },
    {
      "anonymous": false,
      "inputs": [
        {
          "indexed": true,
          "internalType": "address",
          "name": "from",
          "type": "address"
        },
        {
          "indexed": false,
          "internalType": "uint256",
          "name": "amount",
          "type": "uint256"
        }
      ],
      "name": "TokenWithdraw",
      "type": "event"
    },
    {
      "inputs": [
        {
          "internalType": "address",
          "name": "account",
          "type": "address"
        }
      ],
      "name": "balanceOf",
      "outputs": [
        {
          "internalType": "uint256",
          "name": "",
          "type": "uint256"
        }
      ],
      "stateMutability": "view",
      "type": "function"
    },
    {
      "inputs": [
        {
          "internalType": "address",
          "name": "account",
          "type": "address"
        }
      ],
      "name": "bankBalanceOf",
      "outputs": [
        {
          "internalType": "uint256",
          "name": "",
          "type": "uint256"
        }
      ],
      "stateMutability": "view",
      "type": "function"
    },
    {
      "inputs": [],
      "name": "bankTotalDeposit",
      "outputs": [
        {
          "internalType": "uint256",
          "name": "",
          "type": "uint256"
        }
      ],
      "stateMutability": "view",
      "type": "function"
    },
    {
      "inputs": [
        {
          "internalType": "uint256",
          "name": "amount",
          "type": "uint256"
        }
      ],
      "name": "deposit",
      "outputs": [],
      "stateMutability": "nonpayable",
      "type": "function"
    },
    {
      "inputs": [],
      "name": "memberToken",
      "outputs": [
        {
          "internalType": "contract MemberToken",
          "name": "",
          "type": "address"
        }
      ],
      "stateMutability": "view",
      "type": "function"
    },
    {
      "inputs": [],
      "name": "name",
      "outputs": [
        {
          "internalType": "string",
          "name": "",
          "type": "string"
        }
      ],
      "stateMutability": "view",
      "type": "function"
    },
    {
      "inputs": [],
      "name": "owner",
      "outputs": [
        {
          "internalType": "address",
          "name": "",
          "type": "address"
        }
      ],
      "stateMutability": "view",
      "type": "function"
    },
    {
      "inputs": [],
      "name": "symbol",
      "outputs": [
        {
          "internalType": "string",
          "name": "",
          "type": "string"
        }
      ],
      "stateMutability": "view",
      "type": "function"
    },
    {
      "inputs": [],
      "name": "totalSupply",
      "outputs": [
        {
          "internalType": "uint256",
          "name": "",
          "type": "uint256"
        }
      ],
      "stateMutability": "pure",
      "type": "function"
    },
    {
      "inputs": [
        {
          "internalType": "address",
          "name": "to",
          "type": "address"
        },
        {
          "internalType": "uint256",
          "name": "amount",
          "type": "uint256"
        }
      ],
      "name": "transfer",
      "outputs": [],
      "stateMutability": "nonpayable",
      "type": "function"
    },
    {
      "inputs": [
        {
          "internalType": "uint256",
          "name": "amount",
          "type": "uint256"
        }
      ],
      "name": "withdraw",
      "outputs": [],
      "stateMutability": "nonpayable",
      "type": "function"
    }
  ],
  "bytecode": "0x60806040523480156200001157600080fd5b5060405162001a1338038062001a1383398181016040528101906200003791906200040d565b82600190805190602001906200004f9291906200015b565b508160029080519060200190620000689291906200015b565b5033600460006101000a81548173ffffffffffffffffffffffffffffffffffffffff021916908373ffffffffffffffffffffffffffffffffffffffff1602179055506103e860056000600460009054906101000a900473ffffffffffffffffffffffffffffffffffffffff1673ffffffffffffffffffffffffffffffffffffffff1673ffffffffffffffffffffffffffffffffffffffff16815260200190815260200160002081905550806000806101000a81548173ffffffffffffffffffffffffffffffffffffffff021916908373ffffffffffffffffffffffffffffffffffffffff1602179055505050506200050c565b8280546200016990620004d6565b90600052602060002090601f0160209004810192826200018d5760008555620001d9565b82601f10620001a857805160ff1916838001178555620001d9565b82800160010185558215620001d9579182015b82811115620001d8578251825591602001919060010190620001bb565b5b509050620001e89190620001ec565b5090565b5b8082111562000207576000816000905550600101620001ed565b5090565b6000604051905090565b600080fd5b600080fd5b600080fd5b600080fd5b6000601f19601f8301169050919050565b7f4e487b7100000000000000000000000000000000000000000000000000000000600052604160045260246000fd5b620002748262000229565b810181811067ffffffffffffffff821117156200029657620002956200023a565b5b80604052505050565b6000620002ab6200020b565b9050620002b9828262000269565b919050565b600067ffffffffffffffff821115620002dc57620002db6200023a565b5b620002e78262000229565b9050602081019050919050565b60005b8381101562000314578082015181840152602081019050620002f7565b8381111562000324576000848401525b50505050565b6000620003416200033b84620002be565b6200029f565b90508281526020810184848401111562000360576200035f62000224565b5b6200036d848285620002f4565b509392505050565b600082601f8301126200038d576200038c6200021f565b5b81516200039f8482602086016200032a565b91505092915050565b600073ffffffffffffffffffffffffffffffffffffffff82169050919050565b6000620003d582620003a8565b9050919050565b620003e781620003c8565b8114620003f357600080fd5b50565b6000815190506200040781620003dc565b92915050565b60008060006060848603121562000429576200042862000215565b5b600084015167ffffffffffffffff8111156200044a57620004496200021a565b5b620004588682870162000375565b935050602084015167ffffffffffffffff8111156200047c576200047b6200021a565b5b6200048a8682870162000375565b92505060406200049d86828701620003f6565b9150509250925092565b7f4e487b7100000000000000000000000000000000000000000000000000000000600052602260045260246000fd5b60006002820490506001821680620004ef57607f821691505b60208210811415620005065762000505620004a7565b5b50919050565b6114f7806200051c6000396000f3fe608060405234801561001057600080fd5b50600436106100a95760003560e01c806370a082311161007157806370a082311461015457806381983cd9146101845780638da5cb5b146101a257806395d89b41146101c0578063a9059cbb146101de578063b6b55f25146101fa576100a9565b806306fdde03146100ae57806318160ddd146100cc5780632e1a7d4d146100ea5780635cb543841461010657806365513fe514610124575b600080fd5b6100b6610216565b6040516100c39190610e48565b60405180910390f35b6100d46102a8565b6040516100e19190610e83565b60405180910390f35b61010460048036038101906100ff9190610ecf565b6102b2565b005b61010e6105b0565b60405161011b9190610f7b565b60405180910390f35b61013e60048036038101906101399190610fd4565b6105d4565b60405161014b9190610e83565b60405180910390f35b61016e60048036038101906101699190610fd4565b61061d565b60405161017b9190610e83565b60405180910390f35b61018c610666565b6040516101999190610e83565b60405180910390f35b6101aa610670565b6040516101b79190611010565b60405180910390f35b6101c8610696565b6040516101d59190610e48565b60405180910390f35b6101f860048036038101906101f3919061102b565b610728565b005b610214600480360381019061020f9190610ecf565b610931565b005b6060600180546102259061109a565b80601f01602080910402602001604051908101604052809291908181526020018280546102519061109a565b801561029e5780601f106102735761010080835404028352916020019161029e565b820191906000526020600020905b81548152906001019060200180831161028157829003601f168201915b5050505050905090565b60006103e8905090565b60008060009054906101000a900473ffffffffffffffffffffffffffffffffffffffff1673ffffffffffffffffffffffffffffffffffffffff166370a08231336040518263ffffffff1660e01b815260040161030e9190611010565b60206040518083038186803b15801561032657600080fd5b505afa15801561033a573d6000803e3d6000fd5b505050506040513d601f19601f8201168201806040525081019061035e91906110e1565b1161039e576040517f08c379a00000000000000000000000000000000000000000000000000000000081526004016103959061115a565b60405180910390fd5b600460009054906101000a900473ffffffffffffffffffffffffffffffffffffffff1673ffffffffffffffffffffffffffffffffffffffff163373ffffffffffffffffffffffffffffffffffffffff16141561042f576040517f08c379a0000000000000000000000000000000000000000000000000000000008152600401610426906111c6565b60405180910390fd5b6000600460009054906101000a900473ffffffffffffffffffffffffffffffffffffffff16905060003390506000600660008373ffffffffffffffffffffffffffffffffffffffff1673ffffffffffffffffffffffffffffffffffffffff168152602001908152602001600020549050808411156104e2576040517f08c379a00000000000000000000000000000000000000000000000000000000081526004016104d990611258565b60405180910390fd5b6104ed838386610ba7565b83600660008473ffffffffffffffffffffffffffffffffffffffff1673ffffffffffffffffffffffffffffffffffffffff168152602001908152602001600020600082825461053c91906112a7565b92505081905550836003600082825461055591906112a7565b925050819055508173ffffffffffffffffffffffffffffffffffffffff167f68577e4d693c1b056a60bc4e39438810239a0bfe64869c4eb7e3baebb5f65634856040516105a29190610e83565b60405180910390a250505050565b60008054906101000a900473ffffffffffffffffffffffffffffffffffffffff1681565b6000600660008373ffffffffffffffffffffffffffffffffffffffff1673ffffffffffffffffffffffffffffffffffffffff168152602001908152602001600020549050919050565b6000600560008373ffffffffffffffffffffffffffffffffffffffff1673ffffffffffffffffffffffffffffffffffffffff168152602001908152602001600020549050919050565b6000600354905090565b600460009054906101000a900473ffffffffffffffffffffffffffffffffffffffff1681565b6060600280546106a59061109a565b80601f01602080910402602001604051908101604052809291908181526020018280546106d19061109a565b801561071e5780601f106106f35761010080835404028352916020019161071e565b820191906000526020600020905b81548152906001019060200180831161070157829003601f168201915b5050505050905090565b60008060009054906101000a900473ffffffffffffffffffffffffffffffffffffffff1673ffffffffffffffffffffffffffffffffffffffff166370a08231336040518263ffffffff1660e01b81526004016107849190611010565b60206040518083038186803b15801561079c57600080fd5b505afa1580156107b0573d6000803e3d6000fd5b505050506040513d601f19601f820116820180604052508101906107d491906110e1565b11610814576040517f08c379a000000000000000000000000000000000000000000000000000000000815260040161080b9061115a565b60405180910390fd5b600460009054906101000a900473ffffffffffffffffffffffffffffffffffffffff1673ffffffffffffffffffffffffffffffffffffffff163373ffffffffffffffffffffffffffffffffffffffff16141561091c578060035460056000600460009054906101000a900473ffffffffffffffffffffffffffffffffffffffff1673ffffffffffffffffffffffffffffffffffffffff1673ffffffffffffffffffffffffffffffffffffffff168152602001908152602001600020546108da91906112a7565b101561091b576040517f08c379a00000000000000000000000000000000000000000000000000000000081526004016109129061134d565b60405180910390fd5b5b600033905061092c818484610ba7565b505050565b60008060009054906101000a900473ffffffffffffffffffffffffffffffffffffffff1673ffffffffffffffffffffffffffffffffffffffff166370a08231336040518263ffffffff1660e01b815260040161098d9190611010565b60206040518083038186803b1580156109a557600080fd5b505afa1580156109b9573d6000803e3d6000fd5b505050506040513d601f19601f820116820180604052508101906109dd91906110e1565b11610a1d576040517f08c379a0000000000000000000000000000000000000000000000000000000008152600401610a149061115a565b60405180910390fd5b600460009054906101000a900473ffffffffffffffffffffffffffffffffffffffff1673ffffffffffffffffffffffffffffffffffffffff163373ffffffffffffffffffffffffffffffffffffffff161415610aae576040517f08c379a0000000000000000000000000000000000000000000000000000000008152600401610aa5906111c6565b60405180910390fd5b60003390506000600460009054906101000a900473ffffffffffffffffffffffffffffffffffffffff169050610ae5828285610ba7565b82600660008473ffffffffffffffffffffffffffffffffffffffff1673ffffffffffffffffffffffffffffffffffffffff1681526020019081526020016000206000828254610b34919061136d565b925050819055508260036000828254610b4d919061136d565b925050819055508173ffffffffffffffffffffffffffffffffffffffff167f20b3fc91390f6ceba342f697a9490734680fd3556633f40efa146f1dbe79d05f84604051610b9a9190610e83565b60405180910390a2505050565b600073ffffffffffffffffffffffffffffffffffffffff168273ffffffffffffffffffffffffffffffffffffffff161415610c17576040517f08c379a0000000000000000000000000000000000000000000000000000000008152600401610c0e90611435565b60405180910390fd5b80600560008573ffffffffffffffffffffffffffffffffffffffff1673ffffffffffffffffffffffffffffffffffffffff168152602001908152602001600020541015610c99576040517f08c379a0000000000000000000000000000000000000000000000000000000008152600401610c90906114a1565b60405180910390fd5b80600560008573ffffffffffffffffffffffffffffffffffffffff1673ffffffffffffffffffffffffffffffffffffffff1681526020019081526020016000206000828254610ce891906112a7565b9250508190555080600560008473ffffffffffffffffffffffffffffffffffffffff1673ffffffffffffffffffffffffffffffffffffffff1681526020019081526020016000206000828254610d3e919061136d565b925050819055508173ffffffffffffffffffffffffffffffffffffffff168373ffffffffffffffffffffffffffffffffffffffff167fd0ed88a3f042c6bbb1e3ea406079b5f2b4b198afccaa535d837f4c63abbc4de683604051610da29190610e83565b60405180910390a3505050565b600081519050919050565b600082825260208201905092915050565b60005b83811015610de9578082015181840152602081019050610dce565b83811115610df8576000848401525b50505050565b6000601f19601f8301169050919050565b6000610e1a82610daf565b610e248185610dba565b9350610e34818560208601610dcb565b610e3d81610dfe565b840191505092915050565b60006020820190508181036000830152610e628184610e0f565b905092915050565b6000819050919050565b610e7d81610e6a565b82525050565b6000602082019050610e986000830184610e74565b92915050565b600080fd5b610eac81610e6a565b8114610eb757600080fd5b50565b600081359050610ec981610ea3565b92915050565b600060208284031215610ee557610ee4610e9e565b5b6000610ef384828501610eba565b91505092915050565b600073ffffffffffffffffffffffffffffffffffffffff82169050919050565b6000819050919050565b6000610f41610f3c610f3784610efc565b610f1c565b610efc565b9050919050565b6000610f5382610f26565b9050919050565b6000610f6582610f48565b9050919050565b610f7581610f5a565b82525050565b6000602082019050610f906000830184610f6c565b92915050565b6000610fa182610efc565b9050919050565b610fb181610f96565b8114610fbc57600080fd5b50565b600081359050610fce81610fa8565b92915050565b600060208284031215610fea57610fe9610e9e565b5b6000610ff884828501610fbf565b91505092915050565b61100a81610f96565b82525050565b60006020820190506110256000830184611001565b92915050565b6000806040838503121561104257611041610e9e565b5b600061105085828601610fbf565b925050602061106185828601610eba565b9150509250929050565b7f4e487b7100000000000000000000000000000000000000000000000000000000600052602260045260246000fd5b600060028204905060018216806110b257607f821691505b602082108114156110c6576110c561106b565b5b50919050565b6000815190506110db81610ea3565b92915050565b6000602082840312156110f7576110f6610e9e565b5b6000611105848285016110cc565b91505092915050565b7f6e6f74204e4654206d656d626572000000000000000000000000000000000000600082015250565b6000611144600e83610dba565b915061114f8261110e565b602082019050919050565b6000602082019050818103600083015261117381611137565b9050919050565b7f4f776e65722063616e6e6f742065786563757465000000000000000000000000600082015250565b60006111b0601483610dba565b91506111bb8261117a565b602082019050919050565b600060208201905081810360008301526111df816111a3565b9050919050565b7f416e20616d6f756e742067726561746572207468616e20796f757220746f6b6560008201527f6e42616e6b2062616c616e636521000000000000000000000000000000000000602082015250565b6000611242602e83610dba565b915061124d826111e6565b604082019050919050565b6000602082019050818103600083015261127181611235565b9050919050565b7f4e487b7100000000000000000000000000000000000000000000000000000000600052601160045260246000fd5b60006112b282610e6a565b91506112bd83610e6a565b9250828210156112d0576112cf611278565b5b828203905092915050565b7f416d6f756e74732067726561746572207468616e2074686520746f74616c207360008201527f7570706c792063616e6e6f74206265207472616e736665727265640000000000602082015250565b6000611337603b83610dba565b9150611342826112db565b604082019050919050565b600060208201905081810360008301526113668161132a565b9050919050565b600061137882610e6a565b915061138383610e6a565b9250827fffffffffffffffffffffffffffffffffffffffffffffffffffffffffffffffff038211156113b8576113b7611278565b5b828201905092915050565b7f5a65726f20616464726573732063616e6e6f742062652073706563696669656460008201527f20666f722027746f272100000000000000000000000000000000000000000000602082015250565b600061141f602a83610dba565b915061142a826113c3565b604082019050919050565b6000602082019050818103600083015261144e81611412565b9050919050565b7f496e73756666696369656e742062616c616e6365210000000000000000000000600082015250565b600061148b601583610dba565b915061149682611455565b602082019050919050565b600060208201905081810360008301526114ba8161147e565b905091905056fea2646970667358221220d472edffe36909cd7e90593e6a058abb5fa08a5f7956ab7edfdfa2d3e495c67964736f6c63430008090033",
  "linkReferences": {},
  "deployedLinkReferences": {}
}